:020000020000FC
:1000000012C011C010C0D5C40EC00DC00CC00BC0B2
:10001000D9C409C008C007C006C005C004C003C0D9
:1000200002C001C000C00FE50DBF04E00EBF0CD040
:10003000959A0000000000000000859B57C4959829
:1000400087D2BCD2F4D0FDCF72D0F3E1E0E0B0E0D3
:10005000A0E610E205910D931A95E1F700271CE147
:100060000D931A95E9F7B0E0AFEB16E00D931A95F2
:10007000E9F70093D3000093DE0000939F00009304
:10008000A0000093A1000093DF0000E800939C0013
:1000900000E900939D0008E900939E00F3E1E0E28F
:1000A000B0E0A3EA18E105910D931A95E1F708E095
:1000B0000093D10000EC01BB0EE207BBC29A08E13D
:1000C0000AB900E50DB9789408950F931091DC00FA
:1000D0000127F894FF93EF93F8E0E0E0E00FEE0FD4
:1000E000FF1F05911091DD0001270093DC00102F08
:1000F0000491EF91FF9178940093DD001027009117
:10010000DE0001270093DE000F910895E199FECFF4
:10011000BFBBAEBB0DBBF894E29AE19A7894089508
:10012000E199FECFBFBBAEBBE09A0DB30895B0E03E
:10013000A0E1F6DF0330D1F003E0E8DFA39501E1B1
:10014000E5DFA39500E0E2DFA39500E5DFDFA395FF
:100150000FE3DCDFA3950AE0D9DFA39508E0D6DF43
:10016000A3950027D3DFA39508E8D0DFB0E0A1E195
:10017000D7DF09B9A395D4DF00BDA395D1DF0093E4
:10018000D6000093DA00A395CBDF0093D700A395A8
:10019000C7DF0093D800A395C3DF0093D900A395D0
:1001A000A395BEDF0093A2000895C2980F9306E0C6
:1001B0000FB91FD0C29A0000000000000000C298D2
:1001C00002E00FB916D0BFB914D0AFB912D00F9159
:1001D0000FB90FD0C29A0895C29803E00FB909D0A1
:1001E000BFB907D0AFB905D00FB903D00FB1C29ACC
:1001F0000895779BFECF0895F8940024112438E1E8
:10020000F0E0E3EA0FEF0093DC000093DD0006E787
:100210000093BE000092D20006B805BC01E80FBDF5
:1002200009E00EBD04E009BF979A7894089503D0C1
:100230001FD0C3D008955F9B0895C091BF00D09197
:10024000C00000E2C030D00709F408950CB1A091BD
:10025000C100B091C200A9DF1196BF712196A09391
:10026000C100B093C200C093BF00D093C0000895F6
:100270000091D10004FD0895C091BF00D091C0004D
:10028000209609F40895A091C300B091C400A4DFA2
:100290001196BF712197A093C300B093C400C0937F
:1002A000BF00D093C0001091D300003C19F017FD9F
:1002B00008C0089500E81027107809F47BC0106288
:1002C00079C016FD1AC00B3DA1F015FD20C013FD2D
:1002D0003DC01F93177001F1113031F1123039F127
:1002E000133041F1143049F1153051F1163049F114
:1002F00060C010641093D300BBCF1F7B0C3D19F07E
:100300000D3D19F057C000ECE0CF0BEDDECF1F7DA7
:100310000770187F102B4EC00093D5000091D100BC
:1003200000610093D10045C00093D60042C0009305
:10033000D7003FC00093D8003CC00093D90039C01B
:1003400038C00093DF001F91186034C0177F0F93EF
:100350000091DF00003831F0013841F0003989F0B8
:100360000F9128C00F91B0E0A1E121C00F910F9330
:10037000B0E0A2E1CBDE0F9100BD1197D1DE09B94B
:1003800019C00F91B0E0A3E10091D600BFDEA395A4
:100390000091D700BBDEA3950091D800B7DEA395EE
:1003A0000091D900B3DEA395A3950091A200AEDE23
:1003B00001C01F911093D30008950091D100102F18
:1003C000037014FD39C0033019F00230E9F00895CC
:1003D0001091DA001A9521F01093DA007FD0089579
:1003E000033029F01091D9001093DA0003C0102FC8
:1003F000AFD0012F03950370102F0091D1000C7F17
:10040000012B0093D100089515FD08C010621093D0
:10041000D1000091DC0000957FD008951F7D1395D9
:100420001093D1000091DD00009576D00FEF00937E
:10043000DC000093DD000895A9F51091D20012FDB3
:1004400008950091D10006FD1CC00091DE00001F40
:1004500014B501270093DE001091D700101738F073
:10046000CBDE1091D6001093DA000027C3CF109195
:10047000D8001093DB001091D10010641093D100CC
:10048000089516FF08951F7B1093D2001091DB0092
:100490001A9529F41091D8000F7B0093D100109386
:1004A000DB000895013009F493CF023051F400913C
:1004B000D5000BDE31D00091D1000F7E0093D1002A
:1004C00008950FEF0093DC000093DD000091D10050
:1004D0000E7F1091D9001093DA00F0CF0EE718E0EC
:1004E0002A9411F41395000F0F93A5DEF6F7E89404
:1004F0000F91079568F0302E0091BE00063711F07D
:1005000006E703C005E0202E08ED0093BE00032D92
:100510001A9551F72394089518E00F938CDEF6F79F
:10052000E8940F912A9411F4139502C0079568F08E
:10053000302E0091BE00063711F006E701C008ED2D
:100540000093BE0006E0202E032D1A9531F7089582
:10055000F894979800270093BB000093BC00009389
:10056000C5000093C6000093C7000093C800009325
:10057000C9000093CA000093CB000093CC00009305
:10058000D4000EBD01E00093D20000E00093CF0044
:100590000093CD0001E00093D0000093CE0000EC6A
:1005A0000093BD0000E607B904EC06B908E603BDF8
:1005B00002E005BD00E809BF7894089503D086D015
:1005C00037D108950EF081C00091D20000FF7DC0A8
:1005D000E8941091BD001A9521F410EC006400938A
:1005E000D2001093BD003F57032F0E5F0E7F09F41A
:1005F00030E0B0E0A0919C003D93AF78A0939C00C8
:10060000222433244424552410E1D0E0C0E6F0E055
:10061000E0E73D9109910302200C311C0191030296
:10062000400C511CAF781A95A1F7032D0002A09140
:100630009D000D921D92A7792D903C90AA95A093B4
:100640009D00200C311C052D0002A0919E000D92F2
:100650001D92AB794D905C90AA95A0939E00400CA2
:10066000511C1091BB00110F241835080AF0139586
:100670001093BB00312F3F7003E003270091BC00B3
:1006800029F00CE003270091BC0029F4003410F09D
:10069000045001C00C5F005F0093BC00B0F0F2E1B9
:1006A000E0E0E10F04911091D200003838F017FD1E
:1006B00003C010681F7D06C0106204C017FFFCCF86
:1006C0001F77F8CF10611093D20008950091D200E7
:1006D00004FFADC00F7E10919F00110F05FD139513
:1006E00010939F000093D2001E3709F043C003FF10
:1006F0001DC0A091C700B091C800A151B040CAF080
:10070000C091DC00D091DD00C85BD04F91F4A09186
:10071000C700B091C800C091C500D091C600CA0FF3
:10072000DB1FC093C500D093C60014C008600093BF
:10073000D200A091C700B091C800C091CD00D09167
:10074000CE00CA1BDB0BD13008F4D3E0C093CD0040
:10075000D093CE0011271093C7001093C8001FEF4D
:100760001093DC001093DD001091A10013951093FD
:10077000A10046C01F771F3749F40091D200077FC0
:100780000093D20000270093A1003DC01F93109159
:10079000A10013951093A1001F9103FF34C01F7394
:1007A0001E3309F444C01091A000889405FD0894FC
:1007B00017951093A00038F5A091C700B091C8001C
:1007C000C091C500D091C600AC0FBD1FAF5EB24056
:1007D000A0F6012FA091CD00B091CE000D93B37083
:1007E00009F4B1E0A093CD00B093CE006EDCA091EF
:1007F000C700B091C8001196A093C700B093C8007D
:1008000000E80093A0000091A1001091A200011740
:1008100040F00A950093A100969A0091D2000460DE
:1008200004C096980091D2000B7F0093D2000895E7
:100830005D9B5BC0FF93EF93E091C500F091C60014
:10084000309609F450C01091D40017FD12C015FD68
:100850000BC0E093C900F093CA00E093CB00F09383
:10086000CC00106200EC23C01F7D1068012F0770C0
:100870001EC0A091CB00B091CC00C091CF00D09110
:10088000D000099116FD17C01297F9F01196003C9F
:10089000C9F00B3DB9F0A093CB00B093CC00D3705E
:1008A000D13008F4D1E0C093CF00D093D0000CB980
:1008B0001093D40018C01F7B003C11F00DEDE4CF65
:1008C0000CEDE2CF10640BEDF2CF2196A091C900A0
:1008D000B091CA00EA1BFB0BE093C500F093C60081
:1008E0001F7700ECD8CFEF91FF9108959598B3E171
:1008F000A8E34BD04AD055247FDC2FC09CDCC091AC
:10090000BF00D091C000209661F1A091C300B091CA
:10091000C40062DC1196BF712197A093C300B0930D
:10092000C400C093BF00D093C0000032D1F4052DA5
:1009300003950370502E013021F4B3E1A4EB25D0D0
:100940001BC0023021F4B3E1AAED1FD019C003305F
:1009500021F4B4E1A2E019D015C0B3E1AEE815D09E
:1009600007C0052D013041F0023051F0033051F045
:1009700008ED0093BE00C2CF06E70093BE00BECFD5
:10098000ADDDBCCF0027C8DDB9CFF894FF93EF935E
:10099000FB2FEA2F0591002311F007D0FBCFBF2FCB
:1009A000AE2FEF91FF91789408955D9BFECF0CB927
:1009B0000895FFB635B1369A23B5285923BDFFBE39
:1009C00068941895FFB620812ABD2091BE00020EC2
:1009D00020F4E395EB3B08F0E3EA26E7120E28F457
:0E09E0003A9519F438E120E4F22AFFBE18958A
:101000000000891112239B322446AD573665BF7408
:10101000488CC19D5AAFD3BE6CCAE5DB7EE9F7F8B8
:101020008110080193331A22A5562C47B7753E64E8
:10103000C99C408DDBBF52AEEDDA64CBFFF976E898
:1010400002218B30100299132667AF763444BD55C8
:101050004AADC3BC588ED19F6EEBE7FA7CC8F5D978
:1010600083310A2091121803A7772E66B5543C45A8
:10107000CBBD42ACD99E508FEFFB66EAFDD874C958
:1010800004428D5316619F702004A9153227BB3688
:101090004CCEC5DF5EEDD7FC6888E1997AABF3BA38
:1010A00085520C4397711E60A1142805B3373A2668
:1010B000CDDE44CFDFFD56ECE9986089FBBB72AA18
:1010C00006638F7214409D512225AB343006B91748
:1010D0004EEFC7FE5CCCD5DD6AA9E3B8788AF19BF8
:1010E00087730E6295501C41A3352A24B116380728
:1010F000CFFF46EEDDDC54CDEBB962A8F99A708BD8
:10110000088481951AA793B62CC2A5D33EE1B7F007
:101110004008C919522BDB3A644EED5F766DFF7CB7
:10112000899400859BB712A6ADD224C3BFF136E0E7
:10113000C1184809D33B5A2AE55E6C4FF77D7E6C97
:101140000AA583B4188691972EE3A7F23CC0B5D1C7
:101150004229CB38500AD91B666FEF7E744CFD5D77
:101160008BB502A499961087AFF326E2BDD034C1A7
:10117000C3394A28D11A580BE77F6E6EF55C7C4D57
:101180000CC685D71EE597F42880A1913AA3B3B287
:10119000444ACD5B5669DF78600CE91D722FFB3E37
:1011A0008DD604C79FF516E4A9902081BBB332A267
:1011B000C55A4C4BD7795E68E11C680DF33F7A2E17
:1011C0000EE787F61CC495D52AA1A3B03882B19347
:1011D000466BCF7A5448DD59622DEB3C700EF91FF7
:1011E0008FF706E69DD414C5ABB122A0B992308327
:1011F000C77B4E6AD5585C49E33D6A2CF11E780FD7
:10120000000C192626333F4C333F4C595966727FE8
:10121000333F4C595966727F66727F8C8C99A5B2A8
:1012200026333F4C4C5966725966727F7F8C99A564
:101230005966727F7F8C99A58C99A5B2B2BFCCD824
:101240001926333F3F4C59664C596672727F8C9910
:101250004C596672727F8C997F8C99A5A5B2BFCCD0
:101260003F4C596666727F8C727F8C9999A5B2BF8C
:10127000727F8C9999A5B2BFA5B2BFCCCCD8E5F24C
:101280000C192633333F4C593F4C596666727F8C9C
:101290003F4C596666727F8C727F8C9999A5B2BF5C
:1012A000333F4C595966727F66727F8C8C99A5B218
:1012B00066727F8C8C99A5B299A5B2BFBFCCD8E5D8
:1012C00026333F4C4C5966725966727F7F8C99A5C4
:1012D0005966727F7F8C99A58C99A5B2B2BFCCD884
:1012E0004C596672727F8C997F8C99A5A5B2BFCC40
:1012F0007F8C99A5A5B2BFCCB2BFCCD8D8E5F2FF00
:101300003F3A2C1800E8D4C6C2C6D4E800182C3ADC
:101310004C3809D6B8BDE31841492EFBCBB6C5F20F
:1013200080A0BFDAEEFBFFFBEEDABFA0805F4025B6
:10133000110400041125405F0D0A415652544E43DA
:101340002026204146534B204D4F44454D205665A5
:101350007273696F6E20302E302E330D0A0D0A0025
:101360005072657373205B53706163655D20746FA9
:1013700020746F67676C65206265747765656E20A1
:1013800074657374206D6F646573200D0A002A20E4
:1013900054455354204D4F4445202330202A2032B9
:1013A00032303020487A2067656E657261746F72E2
:1013B000200D0A002A2054455354204D4F44452007
:1013C0002331202A203132303020487A2067656E60
:1013D000657261746F72200D0A002A2054455354BF
:1013E000204D4F4445202332202A2048444C43209E
:1013F000466C61672067656E657261746F72200D5F
:101400000A002A2054455354204D4F44452023338D
:10141000202A2053656E6420307830302076696150
:101420002048444C432070726F746F636F6C200DC2
:021430000A00B0
:00000001FF
